:040000003CEF00F0E1
:100008001982FACF15F0FBCF16F0A0A60EEF00F07C
:1000180010EF00F026EF00F0A1A615EF00F017EFA3
:1000280000F026EF00F002D824EF00F00500FA6E89
:100038000B50FD6E0C50FE6EF850FF6EFA50120019
:1000480036EF00F09DA62BEF00F02DEF00F036EF15
:1000580000F09EA632EF00F034EF00F036EF00F02B
:1000680017EF00F016C0FBFF15C0FAFF1992110038
:1000780076EF01F004EC02F0A1EC01F00009D8B42D
:1000880048EF00F04AEF00F05CEF00F097EC01F069
:100098000009D8B452EF00F054EF00F058EF00F028
:1000A800010E0D6E9CEF00F0020E0D6E9CEF00F03D
:1000B80097EC01F00009D8B464EF00F066EF00F0A7
:1000C8006AEF00F0030E0D6E9CEF00F0040E0D6E4B
:1000D8009CEF00F050EC01F083EC01F00009D8B47B
:1000E80078EF00F07AEF00F0B9EF00F022EC01F0C1
:1000F800B9EF00F050EC01F0B9EF00F083EC01F03B
:100108000009D8B48AEF00F08CEF00F0B9EF00F0E6
:100118007AEF00F08DEC01F00009D8B496EF00F00A
:1001280098EF00F0B9EF00F039EC01F0B9EF00F00A
:100138000D50136E146A1450000AD8B4A6EF00F0DC
:10014800B9EF00F01350010AD8B46EEF00F0030ABB
:10015800D8B47EEF00F0010AD8B482EF00F0070AA5
:10016800D8B48EEF00F0B9EF00F002EC02F0120004
:1001780067EC01F0700ED0EC01F07F0ECBEC01F0D3
:100188007C0E176E000E186EDAEC01F0000E176E7A
:10019800000E186EDFEC01F0DA0E176E030E186E03
:1001A800C1EC01F0EA0E176E030E186ED5EC01F0E3
:1001B800F20E176E030E186EE4EC01F0000E176EC7
:1001C800000E186EC6EC01F000EC02F01200ABEC69
:1001D80001F0F28EF28CF28CBCEC00F0FA0E176E85
:1001E800030E186ED5EC01F0140E1164FEEF00F04A
:1001F80000EF01F004EF01F08B808B92F8EF00F034
:100208008B828B90F8EF00F03CEF00F0000E8D6EC3
:10021800000E8C6E000E896E000E8A6E000E8B6EBC
:10022800070E966E92689368FC0E946E95687E68C9
:100238001F0E7F6E000E7C6EF18E120007500810A4
:10024800D8B429EF01F02BEF01F038EF01F002D814
:1002580038EF01F00500FA6E0750FD6E0850FE6E8B
:10026800F850FF6EFA501200120009500A10D8B464
:1002780040EF01F042EF01F04FEF01F002D84FEFED
:1002880001F00500FA6E0950FD6E0A50FE6EF85036
:10029800FF6EFA501200120005500610D8B457EF3E
:1002A80001F059EF01F066EF01F002D866EF01F0B6
:1002B8000500FA6E0550FD6E0650FE6EF850FF6E92
:1002C800FA5012001200C6BA6CEF01F06EEF01F09E
:1002D80075EF01F0800EC76E060EC612000EC56ED1
:1002E800C68A120000EE01F0110EEE6AE806FDE182
:1002F80019901992000EF86E0001EBEF00F0C7A0FC
:1003080088EF01F08BEF01F0010E8CEF01F0000E89
:100318001200C7B092EF01F095EF01F0010E96EFD1
:1003280001F0000E1200C7B49CEF01F09FEF01F03E
:10033800010EA0EF01F0000E1200C7AAA6EF01F00F
:10034800A9EF01F0010EAAEF01F0000E1200E9EC8E
:1003580001F0B4EC01F00AEC01F0BCEC01F0120081
:10036800800EC76E060EC612000EC56EC69A120023
:10037800300ED36E000E9B6E120017C007F018C027
:1003880008F0120017C001F018C002F01200176E32
:1003980017501724776E1200176E17501724C86E5F
:1003A800120017C009F018C00AF0120017C00BF0AD
:1003B80018C00CF0120017C003F018C004F01200A7
:1003C80017C005F018C006F01200D08EA2869F86CE
:1003D80012001050F1EC01F01200126E12C0C9FFA9
:1003E800120006EC02F00F6E120006EC02F00E6E20
:1003F8001200C9CF11F012009D861200C6881200A3
:080408009E961200C95012007B
:020000040020DA
:08000000FFFFFFFFFFFFFFFF00
:020000040030CA
:0E000000FF021F1EFF8B85FF0FC00FE00F4099
:00000001FF
