:040000005BEF00F0C2
:100008004A82FACF40F0FBCF41F0D9CF42F0DACFA5
:1000180043F0F3CF44F0F4CF45F0F6CF46F0F7CFF6
:1000280047F0F8CF48F0F5CF49F0A0A61EEF00F052
:1000380020EF00F035EF00F0A1A625EF00F027EF44
:1000480000F035EF00F002D833EF00F00500FA6E4B
:100058002B50FD6E2C50FE6EFF6AFA50120045EFD1
:1000680000F09DA63AEF00F03CEF00F045EF00F0FD
:100078009EA641EF00F043EF00F045EF00F027EFB8
:1000880000F049C0F5FF48C0F8FF47C0F7FF46C079
:10009800F6FF45C0F4FF44C0F3FF43C0DAFF42C097
:1000A800D9FF41C0FBFF40C0FAFF4A921100BBEFE5
:0200B8000CF04A
:1010000000421BE21AF01A1411D211381BA4148CDE
:101010001B841B7C1B741B6C1B641B5C1B2E1BDC4E
:10102000166D6F68616D65642068616D6564206729
:0F103000617A61720D0044617465203A200000FE
:1010400047EC0DF0F28EF28CF28C210E0001796FDC
:10105000100E7A6F000E7C6F140E7B6FA0EC0BF0FD
:10106000290E0001846F080E856FA20E52EC0DF060
:10107000850EE82EFED700F0290E0001846F070EC2
:10108000856FA60E52EC0DF0850EE82EFED700F00F
:10109000290E0001846FA20E17EC0DF02F6E080EC2
:1010A0000001846FA60E17EC0DF02E6E06EC0BF00F
:1010B00020EE60F0050EEBCFDBFFE806FCE2360E1B
:1010C0000001796F100E7A6F000E7C6F080E7B6F37
:1010D000A0EC0BF08CEC09F09E0EFFEC0CF02D6EEA
:1010E000000E0001816F2DC082F0700E8FEC0AF0AF
:1010F0000B0E00018B6F260E8A6F5D0EE82EFED759
:101100008A2FFCD78B2FFAD700F000F056EF08F0AB
:101110005BEF00F067EC0DF00009D8B492EF08F037
:1011200094EF08F0CEEF08F0A2EF08F0C6EC0DF057
:10113000E8EF08F0C2EC0DF0E8EF08F0BAEC0DF0C3
:10114000E8EF08F013C03AF014C03BF002D8B2EF59
:1011500008F00500FA6E0750FD6E0850FE6EFF6A3B
:10116000FA5012003C6E3D6A3D50000AD8B4BBEF05
:1011700008F09EEF08F03C50010AD8B49EEF08F04A
:10118000030AD8B496EF08F0010AD8B49AEF08F031
:10119000070AD8B49EEF08F09EEF08F024901EC016
:1011A000D9FF1FC0DAFF1E4A1F2ADF50CAEC0DF01C
:1011B0002006D8A0210620502110D8A4E2EF08F084
:1011C000E4EF08F0E7EF08F0060EE8EF08F0030E92
:1011D0001200E5EC0DF01EC0D9FF1FC0DAFFDF6E74
:1011E0001E4A1F2A2006D8A0210620502110D8B45C
:1011F000FCEF08F0FEEF08F003EF09F0D1EC0DF082
:10120000050E3AEF09F024860EEF09F0AEEC0DF072
:101210003AEF09F0B2EC0DF03AEF09F00DC03AF0F8
:101220000EC03BF002D81EEF09F00500FA6E015027
:10123000FD6E0250FE6EFF6AFA5012003C6E3D6A6F
:101240003D50000AD8B427EF09F00AEF09F03C50EE
:10125000010AD8B40AEF09F0030AD8B406EF09F07E
:10126000010AD8B406EF09F0070AD8B40AEF09F06A
:101270000AEF09F0120000017A6F010E00017B6F86
:1012800024B445EF09F047EF09F08AEF09F07AC07E
:101290001DF02492248424900E0E226E010E1C6EEA
:1012A000F40E1B6E2486D60E016E1B0E026E000E0F
:1012B0000D6E000E0E6ED60E036E1B0E046E000E2B
:1012C0000F6E000E106ED60E056E1B0E066E000E13
:1012D000116E000E126ED60E076E1B0E086E000EFB
:1012E000136E000E146ED20E096E1B0E0A6E000EE7
:1012F000156E000E166E9C0E786F1B0E796F92ECB9
:101300000DF0DFEC0DF0DDEC0CF0D7EC0DF0000E85
:1013100000017B6F7B5112002A380F0B300F000148
:10132000666F2A500F0B300F676F2D0E686F2938CC
:101330000F0B300F696F29500F0B300F6A6F2D0E96
:101340006B6F28380F0B300F6C6F28500F0B300F5E
:101350006D6F2F0E6E6F25380F0B300F6F6F25508E
:101360000F0B300F706F2D0E716F26380F0B300F73
:10137000726F26500F0B300F736F2D0E746F27385E
:101380000F0B300F756F27500F0B300F766F0D0E50
:10139000776F660E796F000E7A6F000E7C6F120EFB
:1013A0007B6FA0EC0BF012000001826F000E0001B9
:1013B000836F000182513BEC09F00009D8B4E3EFE0
:1013C00009F0E5EF09F0D9EF09F01E0E00017D6F7D
:1013D000190E7E6F830E7F6F000E806F23EC0DF071
:1013E000810E0001786F000E796F000E7B6F010E89
:1013F0007A6FCCEC0CF0000E00017D6F000E7E6F5A
:10140000000E7F6F000E806F2FEC0DF0AAEC0DF038
:101410004CEC0CF0E806D8B410EF0AF012EF0AF02A
:1014200008EF0AF000018351120000017C6F0001F7
:1014300078517911D8B41FEF0AF021EF0AF03BEF91
:101440000AF07C51020D010EF324D96E000EF42037
:10145000DA6E78C0DEFF79C0DDFF7C51020D0D0E23
:10146000F324D96E000EF420DA6E7AC0DEFF7BC062
:10147000DDFF51EF0AF07C51020D010EF324D96E0D
:10148000000EF420DA6ED60EDE6E1B0EDD6E7C5181
:10149000020D0D0EF324D96E000EF420DA6EDE6A12
:1014A000DD6A1200248662EF0AF0BEEC0DF08EEFCA
:1014B0000AF0E3EC0DF0030E8EEF0AF0BAEC0DF03B
:1014C0008EEF0AF00DC03AF00EC03BF002D872EF7A
:1014D0000AF00500FA6E0150FD6E0250FE6EFF6AC2
:1014E000FA5012003C6E3D6A3D50000AD8B47BEFC2
:1014F0000AF05EEF0AF03C50010AD8B45EEF0AF041
:10150000030AD8B455EF0AF0010AD8B455EF0AF02F
:10151000070AD8B459EF0AF05EEF0AF01200000192
:10152000836F000183513BEC09F00009D8B49BEFB5
:101530000AF09DEF0AF091EF0AF0C60E00017D6FF0
:10154000180E7E6F820E7F6F000E806F23EC0DF001
:10155000810E0001786F000E796F000E7B6F010E17
:101560007A6FCCEC0CF0000E00017D6F000E7E6FE8
:10157000000E7F6F000E806F2FEC0DF0AAEC0DF0C7
:101580004CEC0CF0E806D8B4C8EF0AF0CAEF0AF049
:10159000C0EF0AF01200356E31503210D8B4D3EFDC
:1015A0000AF0D5EF0AF0EFEF0AF03550020D010E08
:1015B000F324D96E000EF420DA6E31C0DEFF32C0A3
:1015C000DDFF3550020D0D0EF324D96E000EF42010
:1015D000DA6E33C0DEFF34C0DDFF05EF0BF03550AF
:1015E000020D010EF324D96E000EF420DA6ED60E31
:1015F000DE6E1B0EDD6E3550020D0D0EF324D96E1E
:10160000000EF420DA6EDE6ADD6A1200000E0001C0
:10161000816FD00ED4EC09F0276E010E0001816FAE
:10162000D00ED4EC09F0266E020E0001816FD00EB0
:10163000D4EC09F0256E040E0001816FD00ED4ECBD
:1016400009F02A6E050E0001816FD00ED4EC09F06E
:10165000296E060E0001816FD00ED4EC09F0286EC1
:1016600020EE25F000EE84F0050EDBCFEBFFE80660
:10167000FCE21200E1EC0DF024A041EF0BF043EF8F
:101680000BF04FEF0BF067EC0DF00009D8B44BEF07
:101690000BF04DEF0BF04FEF0BF00F0E226E2250C0
:1016A000020D010EF324F66E100EF420F76EF86AA8
:1016B000000EF8220900F5CF3EF00900F5CF3FF00B
:1016C00002D86CEF0BF00500FA6E3E50FD6E3F50F5
:1016D000FE6EFF6AFA501200226E12002490020E73
:1016E000236E7BEF0BF0BEEC0DF09FEF0BF0BAEC2E
:1016F0000DF09FEF0BF011C03AF012C03BF002D892
:101700008BEF0BF00500FA6E0550FD6E0650FE6E75
:10171000FF6AFA5012003C6E3D6A3D50000AD8B490
:1017200094EF0BF077EF0BF03C50020AD8B473EF54
:101730000BF0010AD8B473EF0BF077EF0BF0120047
:10174000000E00017E6F000E7D6F000E7E6F000E9A
:101750007D6FC3EF0BF079C0F6FF7AC0F7FF000E84
:10176000F86E0F0EF76403D00800F55005D0F6CFE1
:10177000E9FFF7CFEAFFEF500BEC0DF00001794BDA
:101780007A2B7D4B7E2B7B517D5D7C517E59D8A081
:10179000CCEF0BF0CEEF0BF0ABEF0BF01200080E1E
:1017A000B86E900EAB6E240EAC6EA00EAF6E010E36
:1017B000B06E000E0001786F000E796F88EC0DF0AE
:1017C000000E0001786F000E796F83EC0DF0000EB3
:1017D0000001786F000E796F8DEC0DF0000E306E09
:1017E00012000001786F010E0001796F24B2FBEF47
:1017F0000BF0FDEF0BF010EF0CF02482000E796F70
:101800007851D8B406EF0CF008EF0CF00CEF0CF0A8
:10181000010E226E0EEF0CF0020E226ED9EC0DF0CE
:1018200000017951120020EE02F03A50D9263B50C7
:10183000DA22DECF31F0DDCF32F03AC0D9FF3BC043
:10184000DAFFDECF33F0DDCF34F0EEEC0CF0000E3B
:10185000366E000E376E000E386E000E396E3BECA1
:101860000DF0020E1200000E8D6E000E8C6E000E3A
:10187000896E000E8A6E000E8B6E070E966E926851
:101880009368BF0E946EFE0E956E7E681F0E7F6E7F
:10189000000E7C6EF18E1200010E0001786F24B2F2
:1018A00054EF0CF056EF0CF060EF0CF024941D6830
:1018B000DFEC0DF0DBEC0DF0DDEC0DF023C078F08B
:1018C0000001785112003AC031F03BC032F0000EF6
:1018D000346E010E336EEEEC0CF0000E366E000E20
:1018E000376E000E386E000E396E3BEC0DF0040EB4
:1018F00012003AC031F03BC032F0000E346E020EDE
:10190000336EEEEC0CF0000E366E000E376E000EED
:10191000386E000E396E3BEC0DF0020E12003AC02C
:1019200031F03BC032F0000E346E010E336EEEEC3F
:101930000CF0000E366E000E376E000E386E000E84
:10194000396E3BEC0DF0020E12003AC031F03BC094
:1019500032F0000E346E020E336EEEEC0CF0000E20
:10196000366E000E376E000E386E000E396E3BEC90
:101970000DF0040E120000EE60F0180EEE6AE8069C
:10198000FDE100EE01F0300EEE6AE806FDE14A905E
:101990004A92000120EF08F024A6D1EF0CF0D3EF1B
:1019A0000CF0DCEF0CF078C01EF079C01FF07AC0AC
:1019B00020F07BC021F024961200C6BAE2EF0CF0B2
:1019C000E4EF0CF0EDEF0CF0800EC76E080EC66E63
:1019D000000EC56E270EC86EC68A120024A6F3EF4D
:1019E0000CF0F5EF0CF0FEEF0CF031C01EF032C041
:1019F0001FF033C020F034C021F024961200000103
:101A0000846F000E0001816F8451D4EC09F0000155
:101A1000856F855112000001786F9EA812EF0DF0BE
:101A200014EF0DF00DEF0DF078C0ADFF12000001C6
:101A3000856F84C081F000018551D4EC09F000016C
:101A4000866F865112007DC078F07EC079F07FC02D
:101A50007AF080C07BF0000E15EC0AF012007DC019
:101A600078F07EC079F07FC07AF080C07BF0020E03
:101A700015EC0AF0120036C031F037C032F038C031
:101A800033F039C034F0000ECBEC0AF01200A6ECB3
:101A90000DF05DEC0DF033EC0CF07EEC0DF0CFECC6
:101AA0000BF012000001866F84C081F085C082F0C7
:101AB000000186518FEC0AF01200800EC76E080EEE
:101AC000C66E000EC56E270EC86EC69A1200C5BC43
:101AD0006CEF0DF06FEF0DF0010E70EF0DF0000EDA
:101AE000120024801D500109CAEC0DF0050E1200F1
:101AF00024801D50CAEC0DF0030E1200300ED36E80
:101B0000000E9B6E120078C08EF079C08FF012002C
:101B100078C090F079C091F0120078C08CF079C054
:101B20008DF0120078C02BF079C02CF012002492B6
:101B3000000E236E0E0E12002490E7EC0DF0040E42
:101B400012002492000E236E0E0E1200D08EA2867A
:101B50009F861200000EF1EC0BF01200D4EC0DF099
:101B6000090E1200D4EC0DF00A0E1200D1EC0DF0AB
:101B7000050E1200EDEC0DF0000E1200EFEC0DF072
:101B8000010E1200EFEC0DF0020E1200EFEC0DF062
:101B9000010E1200316E31C0C9FF12003AEC0BF099
:101BA0001200C59AC5881200C58AC58812009D8694
:101BB0001200C58012009D961200C69A12009E96D1
:101BC00012009E9612009E861200C9501200C58611
:101BD0001200050E1200010E1200C5841200C5820B
:021BE0001200F1
:020000040020DA
:08000000FFFFFFFFFFFFFFFF00
:020000040030CA
:0E000000FF021F1EFF8B85FF0FC00FE00F4099
:00000001FF
